:020000040800F2
:1000000000000220C10C0008795000087B50000855
:100010007D5000087F50000881500008000000005B
:1000200000000000000000000000000083500008F5
:100030008550000800000000875000088950000823
:10004000110D0008110D0008110D0008110D000818
:10005000110D0008110D0008110D0008110D000808
:10006000110D0008110D0008110D0008110D0008F8
:10007000110D0008110D0008110D0008110D0008E8
:10008000110D0008110D0008110D0008110D0008D8
:10009000110D0008110D0008110D0008110D0008C8
:1000A000110D0008110D0008110D0008110D0008B8
:1000B000110D0008110D0008110D0008110D0008A8
:1000C000110D0008110D0008110D0008110D000898
:1000D000110D0008110D0008110D0008110D000888
:1000E000110D0008110D0008110D0008110D000878
:1000F000110D0008110D0008110D0008110D000868
:10010000110D0008110D0008110D0008110D000857
:10011000110D0008110D000899500008110D00087C
:10012000110D0008110D0008110D0008110D000837
:10013000110D00080000000000000000110D000873
:10014000110D0008110D0008110D0008AD50000838
:10015000110D0008110D0008110D0008110D000807
:10016000110D0008110D0008110D0008110D0008F7
:10017000110D0008110D0008110D0008000000000D
:1001800000000000110D0008000000000000000049
:10019000110D00080000000000000000110D000813
:1001A000000000000000000000000000110D000829
:1001B000110D0008110D0008110D0008110D0008A7
:0401C000110D000815
:1001D000044B05481B1A062B02D9044B03B11847E0
:1001E000704700BF0B020020080200200000000042
:1001F00005490648091A891001EBD171491002D04E
:10020000034B03B118477047080200200802002082
:100210000000000010B5064C237843B9FFF7D8FF63
:10022000044B13B10448AFF300800123237010BDC9
:1002300008020020000000004076000808B5084BC6
:100240001BB108490848AFF300800848036813B998
:10025000BDE80840CCE7064B002BF9D09847F7E7FC
:10026000000000000C020020407600080802002078
:100270000000000081F0004102E000BF83F0004375
:1002800030B54FEA41044FEA430594EA050F08BF31
:1002900090EA020F1FBF54EA000C55EA020C7FEAF5
:1002A000645C7FEA655C00F0E2804FEA5454D4EB72
:1002B0005555B8BF6D420CDD2C4480EA020281EA3C
:1002C000030382EA000083EA010180EA020281EA74
:1002D0000303362D88BF30BD11F0004F4FEA0131C6
:1002E0004FF4801C4CEA113102D0404261EB4101D5
:1002F00013F0004F4FEA03334CEA133302D052425B
:1003000063EB430394EA050F00F0A780A4F1010416
:10031000D5F1200E0DDB02FA0EFC22FA05F2801850
:1003200041F1000103FA0EF2801843FA05F3594136
:100330000EE0A5F120050EF1200E012A03FA0EFCB5
:1003400028BF4CF0020C43FA05F3C01851EBE371DF
:1003500001F0004507D54FF0000EDCF1000C7EEBFC
:1003600000006EEB0101B1F5801F1BD3B1F5001F3A
:100370000CD349085FEA30004FEA3C0C04F1010459
:100380004FEA445212F5800F80F09A80BCF1004F82
:1003900008BF5FEA500C50F1000041EB045141EA04
:1003A000050130BD5FEA4C0C404141EB010111F405
:1003B000801FA4F10104E9D191F0000F04BF0146B0
:1003C0000020B1FA81F308BF2033A3F10B03B3F18E
:1003D00020020CDA0C3208DD02F1140CC2F10C021E
:1003E00001FA0CF021FA02F10CE002F11402D8BF7C
:1003F000C2F1200C01FA02F120FA0CFCDCBF41EA48
:100400000C019040E41AA2BF01EB0451294330BD16
:100410006FEA04041F3C1CDA0C340EDC04F11404F3
:10042000C4F1200220FA04F001FA02F340EA0300CA
:1004300021FA04F345EA030130BDC4F10C04C4F110
:10044000200220FA02F001FA04F340EA03002946F0
:1004500030BD21FA04F0294630BD94F0000F83F43A
:10046000801306BF81F480110134013D4EE77FEA1D
:10047000645C18BF7FEA655C29D094EA050F08BF69
:1004800090EA020F05D054EA000C04BF194610464A
:1004900030BD91EA030F1EBF0021002030BD5FEA8E
:1004A000545C05D14000494128BF41F0004130BDB6
:1004B00014F580043CBF01F5801130BD01F000450A
:1004C00045F0FE4141F470014FF0000030BD7FEA7D
:1004D000645C1ABF194610467FEA655C1CBF0B4678
:1004E000024650EA013406BF52EA033591EA030F8F
:1004F00041F4002130BD00BF90F0000F04BF002187
:10050000704730B54FF4806404F132044FF00005B9
:100510004FF0000150E700BF90F0000F04BF002132
:10052000704730B54FF4806404F1320410F0004598
:1005300048BF40424FF000013EE700BF42004FEA93
:10054000E2014FEA31014FEA02701FBF12F07F4310
:1005500093F07F4F81F06051704792F0000F14BF0D
:1005600093F07F4F704730B54FF4607401F0004551
:1005700021F0004120E700BF50EA010208BF7047A8
:1005800030B54FF000050AE050EA010208BF70479D
:1005900030B511F0004502D5404261EB41014FF406
:1005A000806404F132045FEA915C3FF4DCAE4FF00A
:1005B00003025FEADC0C18BF03325FEADC0C18BFF1
:1005C000033202EBDC02C2F1200300FA03FC20FA42
:1005D00002F001FA03FE40EA0E0021FA02F114448F
:1005E000C1E600BF70B54FF0FF0C4CF4E06C1CEAA4
:1005F00011541DBF1CEA135594EA0C0F95EA0C0F19
:1006000000F0DEF82C4481EA030621EA4C5123EA8B
:100610004C5350EA013518BF52EA033541F48011BA
:1006200043F4801338D0A0FB02CE4FF00005E1FB6D
:1006300002E506F00042E0FB03E54FF00006E1FBB7
:1006400003569CF0000F18BF4EF0010EA4F1FF04FA
:10065000B6F5007F64F5407404D25FEA4E0E6D413A
:1006600046EB060642EAC62141EA55514FEAC5204B
:1006700040EA5E504FEACE2EB4F1FD0C88BFBCF5C7
:10068000E06F1ED8BEF1004F08BF5FEA500E50F178
:10069000000041EB045170BD06F0004646EA01013E
:1006A00040EA020081EA0301B4EB5C04C2BFD4EB70
:1006B0000C0541EA045170BD41F480114FF0000E69
:1006C000013C00F3AB8014F1360FDEBF002001F0D7
:1006D000004170BDC4F10004203C35DA0C341BDC51
:1006E00004F11404C4F1200500FA05F320FA04F023
:1006F00001FA05F240EA020001F0004221F0004157
:1007000010EBD37021FA04F642EB06015EEA430EC9
:1007100008BF20EAD37070BDC4F10C04C4F12005F9
:1007200000FA04F320FA05F001FA04F240EA0200AC
:1007300001F0004110EBD37041F100015EEA430E7D
:1007400008BF20EAD37070BDC4F1200500FA05F29D
:100750004EEA020E20FA04F301FA05F243EA02031C
:1007600021FA04F001F0004121FA04F220EA02002B
:1007700000EBD3705EEA430E08BF20EAD37070BD71
:1007800094F0000F0FD101F00046400041EB010151
:1007900011F4801F08BF013CF7D041EA060195F033
:1007A000000F18BF704703F00046520043EB0303ED
:1007B00013F4801F08BF013DF7D043EA06037047DA
:1007C00094EA0C0F0CEA135518BF95EA0C0F0CD0E5
:1007D00050EA410618BF52EA4306D1D181EA03012B
:1007E00001F000414FF0000070BD50EA410606BF25
:1007F0001046194652EA430619D094EA0C0F02D16A
:1008000050EA013613D195EA0C0F05D152EA0336AE
:100810001CBF104619460AD181EA030101F00041CC
:1008200041F0FE4141F470014FF0000070BD41F015
:10083000FE4141F4780170BD70B54FF0FF0C4CF4EF
:10084000E06C1CEA11541DBF1CEA135594EA0C0F0E
:1008500095EA0C0F00F0A7F8A4EB050481EA030E5B
:1008600052EA03354FEA013100F088804FEA033342
:100870004FF0805545EA131343EA12634FEA022210
:1008800045EA111545EA10654FEA00260EF00041D1
:100890009D4208BF964244F1FD0404F5407402D223
:1008A0005B084FEA3202B61A65EB03055B084FEAB4
:1008B00032024FF480104FF4002CB6EB020E75EBB1
:1008C000030E22BFB61A754640EA0C005B084FEAD9
:1008D0003202B6EB020E75EB030E22BFB61A754656
:1008E00040EA5C005B084FEA3202B6EB020E75EBA1
:1008F000030E22BFB61A754640EA9C005B084FEA19
:100900003202B6EB020E75EB030E22BFB61A754625
:1009100040EADC0055EA060E18D04FEA051545EA14
:1009200016754FEA06164FEAC30343EA52734FEABD
:10093000C2025FEA1C1CC0D111F4801F0BD141EA36
:1009400000014FF000004FF0004CB6E711F4801F9B
:1009500004BF01430020B4F1FD0C88BFBCF5E06F7B
:100960003FF6AFAEB5EB030C04BFB6EB020C5FEA8B
:10097000500C50F1000041EB045170BD0EF0004EE0
:100980004EEA113114EB5C04C2BFD4EB0C0541EA12
:10099000045170BD41F480114FF0000E013C90E60F
:1009A00045EA060E8DE60CEA135594EA0C0F08BFD3
:1009B00095EA0C0F3FF43BAF94EA0C0F0AD150EAD2
:1009C00001347FF434AF95EA0C0F7FF425AF104665
:1009D00019462CE795EA0C0F06D152EA03353FF48D
:1009E000FDAE1046194622E750EA410618BF52EA0A
:1009F00043067FF4C5AE50EA41047FF40DAF52EADE
:100A000043057FF4EBAE12E74FEA4102B2F1E04357
:100A100024BFB3F5001CDCF1FE5C0DD901F0004CE5
:100A20004FEAC0024CEA5070B2F1004F40EB830035
:100A300008BF20F00100704711F0804F21D113F161
:100A40003872BCBF01F00040704741F480114FEA9A
:100A50005252C2F11802C2F1200C10FA0CF320FA23
:100A600002F018BF40F001004FEAC1234FEAD32340
:100A700003FA0CFC40EA0C0023FA02F34FEA4303AA
:100A8000CCE77FEA625307D150EA01331EBF4FF033
:100A9000FE4040F44000704701F0004040F0FE404E
:100AA00040F40000704700BF034613F8012B002AF2
:100AB000FBD1181A01387047000000000000000048
:100AC00001F0FF01102A2BDB10F0070F08D010F8FF
:100AD000013B013A8B422DD010F0070F42B3F6D103
:100AE000F0B441EA012141EA014122F007047FF01C
:100AF00000070023F0E80256083C85EA010586EA73
:100B0000010685FA47F5A3FA87F586FA47F6A5FAAE
:100B100087F68EB9EED1F0BC01F0FF0102F00702BA
:100B200032B110F8013B013A83EA010313B1F8D165
:100B30000020704701387047002D06BF3546033846
:100B4000073815F0010F07D1013015F4807F02BF7F
:100B5000013015F4C03F0130F0BC0138704700BFD0
:100B60004FF0FF3C06E000BF4FF0010C02E000BF79
:100B70004FF0010C4DF804CD4FEA410C7FEA6C5C5C
:100B80004FEA430C18BF7FEA6C5C1BD001B050EAFF
:100B9000410C0CBF52EA430C91EA030F02BF90EAEA
:100BA000020F0020704710F1000F91EA030F58BFA9
:100BB000994208BF90422CBFD8176FEAE37040F00B
:100BC000010070474FEA410C7FEA6C5C02D150EAA9
:100BD000013C07D14FEA430C7FEA6C5CD6D152EA64
:100BE000033CD3D05DF8040B704700BF8446104629
:100BF00062468C461946634600E000BF01B5FFF728
:100C0000B7FF002848BF10F1000F01BD4DF808EDF7
:100C1000FFF7F4FF0CBF012000205DF808FB00BFC8
:100C20004DF808EDFFF7EAFF34BF012000205DF822
:100C300008FB00BF4DF808EDFFF7E0FF94BF01206F
:100C400000205DF808FB00BF4DF808EDFFF7CEFF70
:100C500094BF012000205DF808FB00BF4DF808EDAF
:100C6000FFF7C4FF34BF012000205DF808FB00BF80
:100C70004FEA410212F5001215D211D56FF47873C4
:100C8000B3EB625212D94FEAC12343F0004343EA67
:100C9000505311F0004F23FA02F018BF4042704742
:100CA0004FF00000704750EA013005D111F00040CC
:100CB00008BF6FF0004070474FF00000704700BF62
:100CC000DFF834D0002103E00C4B5B584350043173
:100CD0000B480C4B42189A42F6D30B4A02E0002311
:100CE00042F8043B094B9A42F9D304F0E5F904F0C9
:100CF00031FC03F045FE70470000022050790008E7
:100D0000000000200802002008020020480C0020FB
:100D1000FEE7000010B5084B044618684FF47A73DC
:100D2000B0FBF3F000F0D6F9002221464FF0FF307F
:100D300000F090F9002010BD1401002008B50B4B05
:100D40001A6842F400721A601A6842F480621A60EB
:100D50001A6842F480721A60032000F069F90020DA
:100D6000FFF7D8FF04F087F8002008BD003C0240E0
:100D7000024A136801331360704700BF6802002005
:100D8000014B1868704700BF6802002013B501903E
:100D9000FFF7F6FF0446FFF7F3FF019B001B9842A5
:100DA000F9D302B010BD000010B50446002800F0D1
:100DB0009E80036C23B9436480F83C3004F08CF8C7
:100DC000236CDB0600F18E80236C23F4885323F020
:100DD000020343F002032364464B5A6822F4403274
:100DE0005A60596862680A435A60236821695A68E0
:100DF000A06A22F480725A605A6842EA01225A605C
:100E00005A6822F040725A605968A2680A435A60D0
:100E10009A6822F400629A609968E2680A439A60CC
:100E2000354A90420ED0996821F0706199609A68B5
:100E300002439A609A6822F040529A609968E26A86
:100E40000A4306E09A6822F070629A609A6822F07B
:100E500040529A609A68A16922F002029A609A68E8
:100E600042EA41029A60226A9AB15A6842F40062E8
:100E70005A605A6822F460425A604FF4604292FA13
:100E8000A2F2B2FA82F1626A5868013A8A400243D9
:100E900002E05A6822F400625A60DA6A22F47002B0
:100EA000DA62E269D96A013A41EA0252DA629A6880
:100EB000216B22F400729A609A6842EA41229A6099
:100EC0009A68616922F480629A609A68002042EA16
:100ED00081229A606064236C23F0030343F00103D2
:100EE000236400E00120002384F83C3010BD012081
:100EF00010BD00BF002301400100000FF7B5002323
:100F0000019390F83C30012B69D00D6804688F681C
:100F10000123092D80F83C30AEB210D906EB460211
:100F2000D4F80CE0A2F11E0307229A402EEA020236
:100F3000E260E26807FA03F31343E3600EE022691C
:100F400005EB45034FF0070E0EFA03FE22EA0E02F0
:100F50002261226907FA03F3134323614B68062BCE
:100F60004FEA83020DD81344676B591F1F238B4030
:100F700027EA03036363626B06FA01F111436163BD
:100F80001DE00C2B0ED81344216BA3F123021F2369
:100F9000934021EA03032363236B06FA02F21A4308
:100FA00022630CE01344E76A413B1F229A4027EA80
:100FB0000202E262E16A06FA03F20A43E262174BB6
:100FC0009C4204D0002380F83C30184623E0122DC8
:100FD00007D1134A536843F480035360F2E70220B9
:100FE00019E0104B9D4201D0112DEBD10C494A68FC
:100FF0009D4242F400024A60E4D10B4B0B4A1B684D
:10100000B3FBF2F20A2353430193019B002BD9D087
:10101000019B013BF8E703B0F0BD00BF0020014099
:1010200000230140120000101401002040420F0074
:10103000074AD36823F4E0631B041B0C43F0BF632F
:10104000000243F4003300F4E0600343D3607047D0
:1010500000ED00E0174BDB68C3F3022330B5C3F1AA
:1010600007041D1D042C28BF0424062D4FF0010584
:1010700005FA04F404F1FF348CBF033B00230C4059
:101080009C4005FA03F3013B1A40002842EA04029F
:101090004FEA0212AFBF00F1604000F00F00064BB4
:1010A000D2B2A5BF00F56140D2B21A5480F8002335
:1010B00030BD00BF00ED00E014ED00E04209012367
:1010C00000F01F0003FA00F0014B43F822007047C4
:1010D00000E100E00138B0F1807F0AD2064B074AF8
:1010E0005860F02182F823100020072298601A60CF
:1010F00070470120704700BF10E000E000ED00E005
:10110000044B1A6804280CBF42F0040222F00402C7
:101110001A60704710E000E0704708B5FFF7FCFF69
:1011200008BD00002DE9F04F674F0B68DFF8A0C144
:10113000DFF8A08185B000220193BE460124019B07
:10114000944034EA030340F0B7804D6825F0100A5C
:10115000BAF1020F14D14FEAD20900EB890902F06B
:10116000070BD9F820604FEA8B0B0F2303FA0BF320
:1011700026EA03060B6903FA0BF33343C9F8203060
:101180004FEA420B4FF00309036809FA0BF96FEAC3
:10119000090905F0030603EA090306FA0BF60AF14A
:1011A000FF3A3343BAF1010F03600FD88368CE686A
:1011B00009EA030306FA0BF61E4386604368C5F38B
:1011C000001623EA0403964033434360C36809EAE8
:1011D00003098B6803FA0BF343EA0903C360EB00CE
:1011E0006AD500230393DCF84460384B46F480460C
:1011F000CCF84460DCF8446022F0030909F180492E
:1012000006F4804609F59C39039602F0030A039E12
:10121000D9F808B04FEA8A0A0F2606FA0AF6984269
:101220002BEA060618D003F58063984216D003F522
:101230008063984214D003F58063984212D003F57E
:101240008063984210D0404510D003F50063984267
:1012500014BF072306230AE0002308E0012306E069
:10126000022304E0032302E0042300E0052303FA41
:101270000AF33343C9F808303B68E64315F4803F6E
:101280000CBF33402343CEF80030DEF8043015F4B1
:10129000003F0CBF334023437B60BB6815F4801FC5
:1012A0000CBF33402343CEF80830DEF80C30AD02DB
:1012B00054BF33402343FB600132102A7FF43EAF1A
:1012C00005B0BDE8F08F00BF003C014000000240C7
:1012D000003802400014024002B9090481617047DD
:1012E000F0B506468BB0002869D00323344680F859
:1012F000B93303F05FFF54F8100B01F035FE0FCC4B
:101300006D460FC50FCC0FC594E8030085E80300B8
:10131000371D97E80E00306801F0EAFD00213068C3
:1013200001F028FE00213346324606F11004012563
:10133000084682F83810D18701310F2982F83950D8
:1013400082F83B0010645064D06402F11C02F0D1BA
:101350000022D6F800E0114602F1400083F8F8219F
:10136000DA870EEB800001320F2A83F8F91183F837
:10137000FB11C3F80012C3F80412C3F80C12416049
:1013800003F11C03E8D10FCC6D460FC50FCC0FC580
:1013900094E8030085E80300704697E80E0001F02A
:1013A000FFFD012386F8B933736A012B02D1304661
:1013B00000F0B9FB306802F0A5F9002000E0012040
:1013C0000BB0F0BD90F8B833012B10B504460CD02B
:1013D000012380F8B833006802F088F9206801F032
:1013E000BDFD002084F8B80310BD022010BD2DE91A
:1013F000F04FD0F800A087B00446504602F0BCF988
:10140000002840F04A82206802F088F9002800F0A5
:101410004482206802F082F9820748BF226820686F
:1014200042BF536903F00203536102F077F910F4ED
:1014300000204FD0206802F075F90AF530660746A3
:10144000A1460025002F46D0FB073DD55FFA85FB5E
:101450005946206802F076F910F0010F804621D03D
:101460000121B160216901290CD13169D9F800024B
:10147000C1F31201411AC9F81012D9F80412084434
:10148000C9F804025946204603F0CCFE216901291F
:1014900008D13DB9D4F80C2222B904F56F72206846
:1014A00002F089F918F0080F04D0204603F0B4FECA
:1014B0000823B36018F0100F1CBF1023B36018F09E
:1014C000200F1CBF2023B36001357F08203609F1AF
:1014D0001C09B7E70546206802F020F9400340F1F7
:1014E0009B80206802F026F9264603900AF51068D2
:1014F0000025039B002B00F08F80039BD90740F150
:1015000083805FFA85F94946206802F025F9C20711
:10151000074620D5DAF834380121A94023EA01032F
:10152000CAF834380123C8F808302369012B01BFF9
:10153000726C336C9B1873644946204603F07BFE43
:101540002169012907D135B9E36C23B904F56F721C
:10155000206802F030F93B0744BF0823C8F8083080
:10156000F80644BF1023C8F80830790644BF40236A
:10157000C8F80830BA0744BF0223C8F808303B0651
:1015800042D523680493376DF36CDB1B376C9F42A5
:1015900028BF1F46049B03F5106307F1030B03EB01
:1015A00045134FEA9B0B0593059B9B699BB25B45DB
:1015B0000CD84FBB049B012203F50069D3F83438E3
:1015C000AA4023EA0203C9F834301DE0326DF36CFF
:1015D0009342EED9002BECD0376C04989B1A9F42B3
:1015E00028BF1F46237C00934A46BBB2716C01F0B2
:1015F000FBFF736C3B447364336D07F1030B3B4497
:101600004FEA9B0B3365CFE7039B5B0801350393E0
:101610001C3608F120086CE7206802F07FF80028EB
:1016200018DADAF8043823F00103CAF8043894F819
:10163000EC33012B06D1002184F8EC13204603F093
:10164000FFFE02E0204603F02BFE2268536903F000
:1016500000435361206802F061F807050BD5DAF802
:101660000838DE0702D5204603F002FE22685369DF
:1016700003F400635361206802F050F8000116D5AE
:1016800023685A6902F000625A6194F8EC235AB94F
:101690005B6D0121C3F3830384F8EC13C4F8F033CA
:1016A000204603F0CDFE02E0204603F0E1FD206875
:1016B00002F034F8C10443D50AF500667368206867
:1016C00023F001037360002101F00CFD60680AF54E
:1016D00010630022FF21824205D099600132C3F8D5
:1016E00008122033F7E74FF0FF33B361F36943F09B
:1016F0000113F361236B53B1D6F8843043F00B032D
:10170000C6F88430736C43F00B03736407E07369AD
:1017100043F02B037361336943F00B033361DAF851
:101720000038217C206823F4FE63CAF8003804F5F1
:101730006F7202F040F82268536903F480535361DA
:10174000206801F0EBFF820423D5206802F018F82E
:101750002068C36823F47053C36001F0ECFC236875
:1017600038B94FF400726261DA68E06042F41052F6
:1017700006E00322E26040226261DA6842F4C0526D
:10178000DA60204603F063FD2268536903F40053D6
:101790005361206801F0C2FFC30638D522689369FF
:1017A00023F010039361DAF82060C6F34343022B61
:1017B00006F00F0714D147F6F073334013B31C2320
:1017C00003FB0747C6F30A163246D7F80412504601
:1017D00001F01EFFD7F804323344C7F804320CE09E
:1017E000062B0FD1082204F56F71504601F010FF4F
:1017F0001C2303FB0747C6F30A16D7F810321E4412
:10180000C7F810622268936943F01003936120685F
:1018100001F084FF070707D5204603F014FD226876
:10182000536903F008035361206801F077FFC60293
:1018300008D5E9B2204603F03BFD2268536903F462
:1018400080135361206801F069FF800208D5E9B276
:10185000204603F029FD2268536903F40013536105
:10186000206801F05BFF410007D5204603F024FD0E
:101870002268536903F080435361206801F04EFFF2
:1018800042070AD523685D686B0702D5204603F03E
:1018900017FD226853682B43536007B0BDE8F08FF3
:1018A00090F8B833012B10B5044609D0012380F815
:1018B000B833006801F00AFF002084F8B80310BDB7
:1018C000022010BDF8B5CDB26FB2002F04464FF024
:1018D0001C0601F07F00B9BF06FB0041383106FB52
:1018E000014101F5FC71C0B2002FB8BFC880022BC6
:1018F000CB704FEAD51504BF00230B7108704D70F3
:1019000094F8B8338A60012B09D0012384F8B833E6
:10191000206801F02BFC002084F8B803F8BD0220F9
:10192000F8BDCBB213F0800F10B54FF01C02044687
:1019300001F07F0015BF02FB004102FB014138317D
:1019400001F5FC71DB0908704B7094F8B833012B7A
:1019500009D0012384F8B833206801F048FC002046
:1019600084F8B80310BD022010BD38B5044601F05C
:101970007F051C2000FB0540C0F80C320023C0F896
:101980000422C0F8103280F8F93180F8F851236948
:10199000012B08BFC0F8082294F8B823012A13D0FD
:1019A0001C21012201FB054184F8B82301F5FC71DB
:1019B000DAB2206815B901F06DFD01E001F04EFCCE
:1019C000002084F8B80338BD022038BD01F00F01B3
:1019D0001C2303FB0100B0F81002704738B5044621
:1019E00001F07F051C2000FB0540C3640023036554
:1019F0000123426480F8393080F838502369012B84
:101A000008BF826494F8B823012A12D01C21012255
:101A100001FB054184F8B8233831DAB2206815B9E2
:101A200001F038FD01E001F019FC002084F8B80352
:101A300038BD022038BD38B5CBB213F0800F01F0AD
:101A40007F054FF01C0215BF02FB050102FB0101DF
:101A5000383101F5FC710122DB09EDB28A700D709D
:101A60004B7090F8B833934204460FD080F8B823F7
:101A7000006801F0DBFD2DB904F56F72217C206850
:101A800001F099FE002084F8B80338BD022038BD6B
:101A900038B5CBB213F0800F05464FF01C0201F0B1
:101AA0007F0015BF02FB005102FB0151383101F5E7
:101AB000FC71DB0900248C7008704B7095F8B8330A
:101AC000012B09D0012385F8B833286801F0E0FD27
:101AD00085F8B843204638BD022038BD70B504688B
:101AE000606A19B940EA0243A36216E0A36A0025BE
:101AF00000EB13434E1EE8B2864205F1010506D9FC
:101B0000403004EB8000406803EB1043F3E73F31C3
:101B100004EB810443EA02436360002070BD036864
:101B2000002059627047026803460121C0F8F4138F
:101B3000002083F8EC03936943F000639361536DD5
:101B400043F0805343F003035365704737B50023D8
:101B50000193224B1A6C42F080521A641B6C03F002
:101B600080530193019B4FF4803393FAA3F3B3FAAC
:101B700083F303F1845303F560339B0001221A6061
:101B8000FFF7FEF8164C05466368DA0307D4FFF743
:101B9000F7F8401BB0F57A7FF6D903201BE04FF42D
:101BA000003393FAA3F3B3FA83F303F1845303F5F9
:101BB00060339B0001221A60FFF7E2F8084C0546EB
:101BC00063689B0306D4FFF7DBF8401BB0F57A7F10
:101BD000F6D9E2E7002003B030BD00BF0038024074
:101BE00000700040554B1A6802F00F028A422DE93E
:101BF000F04105460E460AD32968880711D550489A
:101C0000836823F0F002AB681343836009E0CAB233
:101C10001A701B6803F00F039942EDD00120BDE854
:101C2000F081C90706D4454B1A6802F00F029642AC
:101C300051D357E06B68424A012B03D1126812F46A
:101C4000003F08E0991E0129126802D812F0007FB7
:101C500001E012F0020FE1D0394CA26822F0030239
:101C60001343A360FFF78CF86B68012B074641F222
:101C700088380CD1A36803F00C03042BD3D0FFF7F2
:101C80007FF8C01B4045F5D90320BDE8F081022B49
:101C90000AD1A36803F00C03082BC4D0FFF770F837
:101CA000C01B4045F5D9EFE7032B0FD1A36803F024
:101CB0000C030C2BB7D0FFF763F8C01B4045F5D9D8
:101CC000E2E7FFF75DF8C01B4045DDD8A36813F0DD
:101CD0000C0FF6D1A7E7F2B21A701B6803F00F03DE
:101CE0009E429BD129684A0706D51548836823F48C
:101CF000E052EB68134383600B0707D5104A29694C
:101D0000936823F4604343EAC103936000F0B2FC9C
:101D10000B4BF0229B6892FAA2F2B2FA82F203F025
:101D2000F003D340074AD35CD840074B186000202B
:101D3000FEF7F0FF0020BDE8F08100BF003C02404C
:101D4000003802405876000814010020014B186842
:101D5000704700BF1401002003682DE9F74F13F00E
:101D6000010604460BD07D49866BD1F88C2022F009
:101D7000C0623243B6FA86F6C1F88C2076099D0718
:101D80000BD57648E16BD0F88C2022F0C0520A4384
:101D90000029C0F88C2008BF012613F0040512D0DA
:101DA0006E49256BD1F88C20B5F5801F22F44012C6
:101DB00042EA050218BFB5FA85F5C1F88C2012BFBA
:101DC0006D0900250126180710D56448616BD0F80D
:101DD0008C2022F440020A43B1F5800FC0F88C2019
:101DE00003D0002908BF012500E0012699065CD533
:101DF00000230193594B5A4F1A6C42F080521A64D7
:101E00001B6C03F080530193019B3B6843F4807388
:101E10003B60FEF7B5FF80463B68DA0507D4FEF766
:101E2000AFFFC8EB00000228F6D903206EE24B4F4B
:101E30003B6F13F440730FD1226C02F44073B3F57F
:101E4000407F464B28D1996821F4F81022F0704168
:101E500021F44071014322E0226C02F4407293426B
:101E6000EAD03B6F3F4A0121116023F44073002107
:101E700011603B673B6FDB07DED5FEF781FF41F268
:101E8000883980463B6F9807D6D4FEF779FFC8EBB8
:101E900000004845F6D9C8E7996821F4F81199601F
:101EA000196FC2F30B020A431A672368D90642BFAF
:101EB0002D4B94F858201A6023681A0608D5274835
:101EC000D0F8942022F44001E26C0A43C0F8942038
:101ED0005F0608D52148D0F8942022F08061A26CDA
:101EE0000A43C0F89420D8050CD51C48616DD0F881
:101EF000942022F000620A43B1F1006FC0F89420F0
:101F000008BF0125990508D51448D0F8942022F07F
:101F10008051626C0A43C0F894205A0502D4012E05
:101F200014D10BE00D48216DD0F8942022F000521E
:101F30000A43B1F1005FC0F89420F0D10B4E074F77
:101F400000233360FEF71CFF804618E0B3F5006FF6
:101F5000F4D0012D40F05B813FE100BF003802402A
:101F600000700040400E4742E0114742680047427F
:101F7000FEF706FFC8EB000002283FF656AF3B68AD
:101F80001B01F5D42068C70701D5A36B23B18107D6
:101F900045D5E36B002B42D1DFF878E34FF44033B3
:101FA000DEF8841093FAA3F24FF07069B2FA82F867
:101FB000DEF8842099FAA9FA47F6C077BAFA8AFAC5
:101FC00097FAA7F7B7FA87F793FAA3F3B3FA83FC64
:101FD00099FAA9F94FF0E04BB9FA89F99BFAABFBF2
:101FE000A36803FA07F76369BBFA8BFB03FA0BF3E9
:101FF0001F4302F07062636822FA0AF23B4302FA5E
:1020000009F701F4403222FA08F2013222F00042CC
:10201000013A1F4302FA0CF33B43CEF884304207E7
:1020200003D5236BB3F5801F05D003074FD5636B32
:10203000B3F5800F4BD1DFF8DCE24FF44033DEF82C
:10204000841093FAA3F24FF0E049B2FA82F8DEF876
:10205000842099FAA9FA47F6C077BAFA8AFA97FA69
:10206000A7F7B7FA87F793FAA3F34FF0706BB3FAB9
:1020700083FC9BFAABFBBBFA8BFB99FAA9F9A3682B
:1020800003FA07F7236903FA0BF31F4302F0E04258
:10209000636822FA0AF2B9FA89F93B4302FA09F7AE
:1020A00001F4403222FA08F2013222F00042013AF1
:1020B0001F4302FA0CF33B43CEF88430DEF88C3039
:1020C000A26A23F01F03013A1343CEF88C30470570
:1020D00045D5236DB3F1005F41D1DFF838E24FF40D
:1020E0004033DEF8841093FAA3F24FF0E049B2FADD
:1020F00082F8DEF8842099FAA9FA47F6C07BBAFA8A
:102100008AFA9BFAABFBBBFA8BFB93FAA3F34FF073
:10211000706CB3FA83F39CFAACFCBCFA8CFC99FAB1
:10212000A9F9E7687F08013F9F40A36803FA0BF312
:102130001F4302F0E042636822FA0AF2B9FA89F911
:102140003B4302FA09F701F4403222FA08F2013265
:1021500052001F4302FA0CF33B43CEF884300105D2
:102160002BD547F6C07292FAA2F24FF44033B2FA7E
:1021700082FE93FAA3F34FF07061B3FA83FC91FAF5
:10218000A1F14FF0E042B1FA81F792FAA2F2E368CE
:102190006168B2FA82F05B08A268013B02FA0EF2B3
:1021A00003FA0CF313430B4321696269B9401943E5
:1021B0008240584B0A43C3F8842001233360FEF762
:1021C000DFFD544E074633681A013FF5C2AEFEF7F5
:1021D000D7FDC01B0228F6D927E64F4D4D4E0023F0
:1021E0002B60FEF7CDFD074633689B0011D42068B5
:1021F000460714D4010715D4C2054FD401232B6020
:10220000FEF7BEFD434C054623689B0077D50020B2
:102210007CE0FEF7B5FDC01B0228E5D905E6236B7F
:102220001BB1E7E7636B002BE6D13A494FF4403727
:10223000D1F8882097FAA7F347F6C07CB3FA83F366
:102240009CFAACFCBCFA8CFC97FAA7F74FF07066CE
:10225000B7FA87F796FAA6F6B6FA86FEE66902F4AA
:10226000403222FA03F306FA0CF2666A013306FAE8
:102270000EF6164323F00043A269013B3243BB40F4
:102280001343C1F88830D1F88C30E26A23F4F85354
:10229000013A43EA0223C1F88C30ADE7636DB3F134
:1022A000006FABD11B4F4FF07060D7F8882090FAC9
:1022B000A0FE47F6C076BEFA8EFE96FAA6F64FF45A
:1022C0004031B6FA86FC91FAA1F1B1FA81F690FAA2
:1022D000A0F0216AA36949080139B140E66902F01A
:1022E000706206FA0CF6B0FA80F0314322FA0EF270
:1022F000194302FA00F30B43C7F888307EE7FEF774
:102300003FFD401B02287FF67FAF8EE503B0BDE89E
:10231000F08F00BF003802407000474203682DE98B
:10232000F341DE07044603D423689D0758D4B1E087
:10233000974B9A6802F00C02042A10D09A6802F0B7
:102340000C02082A02D15B68580208D4904B9A68A4
:1023500002F00C020C2A0BD15A68510208D58C4BA2
:102360001B689A03E0D56368002BDDD101207AE178
:102370006268B2F5803F04D11A6842F480321A6074
:1023800014E0834DB2F5A02F2B6807D143F48023CE
:102390002B602B6843F480332B6007E023F48033F9
:1023A0002B602B6823F480232B606AB1FEF7E8FCD6
:1023B000774D06462B689B03B6D4FEF7E1FC801BE5
:1023C0006428F7D903204EE1FEF7DAFC06462B68B5
:1023D0009F03A9D5FEF7D4FC801B6428F7D9F1E749
:1023E0006B4B9A6812F00C0F10D09A6802F00C0236
:1023F000082A02D15B68580208D5654A936803F041
:102400000C030C2B17D15368590214D4604B1A6873
:10241000920702D5E268012AA8D11A68F82191FA38
:10242000A1F12069B1FA81F100FA01F122F0F8027C
:102430000A431A602EE0E268564BEAB101221A60A4
:10244000FEF79EFC524D06462B6851489B0705D46B
:10245000FEF796FC801B0228F6D9B3E70368F82242
:1024600092FAA2F22169B2FA82F201FA02F223F0A0
:10247000F803134303600DE01A60FEF781FC444D3E
:1024800006462B689F0705D5FEF77AFC801B0228BD
:10249000F7D997E723681E0703D423685D0748D55B
:1024A0001FE062693C4B72B101221A60FEF768FCC2
:1024B000374D06466B6F9807EFD4FEF761FC801B23
:1024C0000228F7D97EE71A60FEF75AFC304D06461F
:1024D0006B6F9907E1D5FEF753FC801B0228F7D9F3
:1024E00070E7002301932A4B2C4D1A6C42F0805266
:1024F0001A641B6C03F080530193019B2B6843F417
:1025000080732B60FEF73CFC06462B68DA0513D57A
:10251000A3681F4D012B15D12B6F43F001032B67CF
:10252000FEF72EFC1A4D064641F288372B6F9B07AB
:1025300019D5A269A2BB7BE0FEF722FC801B022812
:10254000E3D93FE7052B04D12B6F43F004032B673E
:10255000E2E72A6F22F001022A672A6F22F00402C2
:102560002A6733B1DCE7FEF70BFC801BB842DDD9EC
:1025700028E7FEF705FC41F2883706462B6F9807DF
:10258000D7D5FEF7FDFB801BB842F7D91AE700BF8D
:102590000038024000004742800E47420070004071
:1025A000324DAB6803F00C03082B3FF4DFAE304E26
:1025B0000023022A33604AD1FEF7E2FB80462B68F3
:1025C0002A4F990136D447F6C07292FAA2F24FF41C
:1025D0004033B2FA82FC93FAA3F34FF07061B3FA7E
:1025E00083FE91FAA1F14FF0E042B1FA81F592FA3F
:1025F000A2F2E369B2FA82F0226A43EA0201626A55
:10260000A36A02FA0CF211435A08013A02FA0EF3D5
:102610000B43E16A226BA9400B43824013437B606A
:1026200001233360FEF7ACFB04463B689A0108D5F2
:10263000002018E0FEF7A4FBC8EB00000228BED97A
:10264000C0E6FEF79DFB001B0228EED9BAE6FEF7B6
:1026500097FB04462B689B01EAD5FEF791FB001B14
:102660000228F7D9AEE602B0BDE8F081003802409A
:10267000600047423049886800F00C00082808D004
:102680000C282FD02D4A2E4B04280CBF184610467C
:10269000704748684B6800F03F0013F4800F47F61E
:1026A000C0724B6892FAA2F247F6C071B2FA82F297
:1026B00001EA030121FA02F114BF214A1F4AB2FBC9
:1026C000F0F01D4A00FB01F352684FF4403090FADD
:1026D000A0F0B0FA80F002F4403222FA00F00130AB
:1026E000400025E048684B6800F03F0013F4800F7D
:1026F00047F6C0724B6892FAA2F247F6C071B2FA7E
:1027000082F201EA030121FA02F114BF0C4A0B4ADA
:10271000B2FBF0F0084A00FB01F352684FF0E040D2
:1027200090FAA0F0B0FA80F002F0E04222FA00F055
:10273000B3FBF0F0704700BF003802400024F40003
:1027400040787D01036A23F001030362036A426853
:1027500070B584690D6824F07304254323F00204E6
:102760008B6823430C4CA04209D004F58064A0423E
:1027700005D042604A6885614263036270BDCC68DF
:102780004E6923F0080323438C6922F440723443DA
:1027900023F004032243ECE700000140036A23F422
:1027A00080730362036A426830B5C4690D6824F01F
:1027B00073042C438D6823F4007343EA05230E4D04
:1027C000A84209D005F58065A84205D042604A6854
:1027D000C461C263036230BDCD6823F4006343EA81
:1027E00005234D6922F4405242EA05128D6923F413
:1027F000806342EA0512E9E700000140036A23F41E
:102800008053036230B5046A4368C2690D6822F4DC
:10281000E64242EA05228D6824F4005444EA053475
:10282000094DA84209D005F58065A84205D043604E
:102830004B68C2610364046230BD4D6923F4804378
:1028400043EA8513F3E700BF000001400368DA683C
:1028500042F00102DA601A6842F001021A600020B8
:1028600070477047036851B1042910D01A6A22F0EA
:1028700001021A621A6A42F001021A6207E01A6A39
:1028800022F001021A621A6A42F0010206E01A6A94
:1028900022F010021A621A6A42F010021A621A68D2
:1028A00042F001021A600020704790F83830012B86
:1028B00070B54FF0020300F0B08080F83930036843
:1028C000012280F838209A6822F47F4222F07702B1
:1028D0009A600A68402A77D018D8102A00F08B80B6
:1028E00008D8002A40F093809A6822F0700242F0E3
:1028F00007028BE0202A00F08480302A40F0878095
:102900009A6822F0700242F037027FE0702A35D0D8
:102910001BD8502A41D0602A79D11C6A4D68CE68F4
:1029200024F010041C6299691A6A21F4704122F0A3
:10293000A00242EA051241EA063199611A629A68D8
:1029400022F0700242F0670260E0B2F5805F11D0C1
:10295000B2F5005F5BD19C688D684A68C9682A43FC
:1029600024F47F44224342EA01229A609A6842F4A6
:1029700080424BE09A6822F0070247E09C688D682D
:102980004A68C9682A4324F47F44224342EA012268
:102990009A609A6842F0770238E01A6A1C6A4D68B9
:1029A000CE6824F001041C62996922F00A0221F029
:1029B000F0012A4341EA061199611A629A6822F0ED
:1029C000700242F0570221E01A6A1C6A4D68CE6814
:1029D00024F001041C62996922F00A0221F0F0013E
:1029E0002A4341EA061199611A629A6822F070023C
:1029F00042F047020AE09A6822F0700242F01702A1
:102A000004E09A6822F0700242F027029A600123E3
:102A100080F83930002380F83830184670BD704790
:102A2000704770477047704703681A69910710B57F
:102A3000044614D5DA68920711D56FF002021A61C4
:102A40009B6901229B07027602D0FFF7EAFF04E0B0
:102A5000FFF7E6FF2046FFF7E5FF00232376236814
:102A60001A69500716D5DA68510713D56FF00402BA
:102A70001A619B69022213F4407F2276204602D01D
:102A8000FFF7CFFF04E0FFF7CBFF2046FFF7CAFFB9
:102A90000023237623681A69120715D5DA68100710
:102AA00012D56FF008021A61DB69042299072276B9
:102AB000204602D0FFF7B5FF04E0FFF7B1FF204644
:102AC000FFF7B0FF0023237623681A69D20616D5D4
:102AD000DA68D00613D56FF010021A61DB6908229C
:102AE00013F4407F2276204602D0FFF79AFF04E0DD
:102AF000FFF796FF2046FFF795FF00232376236814
:102B00001A69D10708D5DA68D20705D56FF0010236
:102B10001A612046FFF783FF23681A69100608D55B
:102B2000DA68110605D56FF080021A61204600F0C0
:102B3000DEF923681A69520608D5DA68500605D509
:102B40006FF040021A612046FFF76DFF23681A6993
:102B500091060AD5DA68920607D56FF02002204662
:102B60001A61BDE8104000F0C1B910BD2E4A0368DB
:102B7000904212D0B0F1804F0FD0A2F57C4290422B
:102B80000BD002F58062904207D002F5806290423D
:102B900003D002F57842904218D14A6823F07003BE
:102BA0001343214A904237D0B0F1804F34D01F4AAE
:102BB000904231D002F5806290422DD002F58062C1
:102BC000904229D002F57842904225D0184A90428E
:102BD00022D002F5806290421ED002F580629042BF
:102BE0001AD0A2F59832904216D002F58062904237
:102BF00012D002F5806290420ED003608B68C362EF
:102C00000B688362084B98420BD003F580639842AF
:102C100007D0012343617047CA6823F4407313430C
:102C2000EBE70B690363F4E7000001400004004098
:102C30000040014010B50446A0B190F8393003F0CF
:102C4000FF021BB980F8382002F0A6F9022384F8AD
:102C500039302068211DFFF789FF012384F83930BE
:102C6000002010BD012010BD10B50446A0B190F8A1
:102C7000393003F0FF021BB980F83820FFF7F1FD6F
:102C8000022384F839302068211DFFF76FFF0123EC
:102C900084F83930002010BD012010BDF8B50C4675
:102CA0000546002841D090F8393003F0FF021BB9E7
:102CB00080F8382002F032F92946022351F8040B3B
:102CC00085F83930836823F007038360FFF74EFFF0
:102CD0002868236887688169A269066A1F4321F40E
:102CE000407323F0030343EA0222A36821691343DC
:102CF000E269090141EA0221E2680A43216A23F4F8
:102D00007C4342EA013223F0FC036169134326F05D
:102D1000AA0242EA0112616887600A4383610123C3
:102D2000026285F839300020F8BD0120F8BD0000AE
:102D3000036A23F010030362036A426830B58469B2
:102D40000D6824F4E64444EA05248D6823F020034A
:102D500043EA05130E4DA84209D005F58065A84247
:102D600005D042604A6884618263036230BDCD68E9
:102D700023F0800343EA05134D6922F4406242EADE
:102D800085028D6923F0400342EA8502E9E700BF2E
:102D90000000014038B590F83830012B04460D464C
:102DA0004FF0020058D0012384F8383084F83900FD
:102DB0000C2A4BD8DFE802F0074A4A4A174A4A4A27
:102DC000294A4A4A39002068FFF7BCFC23689A69FF
:102DD00042F008029A619A6922F004029A619969A4
:102DE0002A690A430FE02068FFF7A2FF23680969F8
:102DF0009A6942F400629A619A6922F480629A6147
:102E00009A6942EA01229A6120E02068FFF7C6FC35
:102E10002368DA6942F00802DA61DA6922F0040212
:102E2000DA61D9692A690A430FE02068FFF7E6FCF6
:102E300023680969DA6942F40062DA61DA6922F426
:102E40008062DA61DA6942EA0122DA610123002054
:102E500084F8393084F8380038BD10B50123046A8D
:102E60008B4024EA03030362036A8A4042EA0301B7
:102E7000016210BD10B5044601220068FFF7EDFFA6
:102E80002368084A934203D002F58062934203D13B
:102E90005A6C42F400425A641A6842F001021A6005
:102EA000002010BD0000014090F83830012B10B513
:102EB0004FF0020318D080F8393003685A6822F0C6
:102EC00070025A605C680A6822435A609A6822F06D
:102ED00080029A609C684A6822439A60012380F8C5
:102EE0003930002380F83830184610BD70477047DD
:102EF00084B038B505AD85E80E000A9B012B044669
:102F000017D1836B23F480338363C36823F4840372
:102F100023F04003C360C36823F44013C360119BD4
:102F2000012B02BFC36843F48013C36000F066FC4A
:102F300008E0C36843F04003C36000F05FFC4FF457
:102F40008033A363089B012B02BFA36843F02003D7
:102F5000A360BDE83840002004B07047836843F0A8
:102F60000103836000207047836823F001038360BE
:102F70000020704708B5C368012923F0C043C3602F
:102F800004D1C36843F00053C36004E019B9C368B7
:102F900043F08043C3603220FDF7F8FE002008BDF7
:102FA00084B02DE9F041044607A880E80E00A36B29
:102FB000119E0A9F43F400138846A3635EB9A36B76
:102FC00023F40013A363236843F0400323602368C2
:102FD00043F0800323600023C4F8003ED4F8003897
:102FE000C4F800380C9B012B04F5006506D1099943
:102FF00029B11946204600F097F803E00321204646
:1030000000F092F81021204600F06CF8204600F005
:103010007BF800234FF0FF322B6119466B614FF0B4
:103020009040AA614FF0FF0EEB6104F5106243453A
:103030000CD0D2F800C0BCF1000FB4BF106011601A
:1030400001331161C2F808E02032F0E7002204F5F4
:10305000306311464FF090404FF0FF0E42450CD0C8
:10306000D3F800C0BCF1000FB4BF18601960013282
:103070001961C3F808E02033F0E72B69012F23F42E
:1030800080732B6108D1154B2B632B6B43F480337A
:1030900043F003032B632B6B0023A3616FF080438A
:1030A00063611FB9A36943F01003A361A2690C4BCC
:1030B0001343A3610D9B1BB1A36943F00803A361F4
:1030C000012E01BFA36943F0804343F00403A361D1
:1030D000BDE8F041002004B0704700BF000180004F
:1030E00000383C80890141F02001064A0161013A23
:1030F00005D0036913F02003F9D118467047032067
:10310000704700BF410D03001023064A0361013AD6
:1031100005D0036913F01003F9D118467047032056
:10312000704700BF410D0300D0F800381943C0F8C4
:10313000001800207047D0F8083800F5006213F03E
:10314000060012D0936803F00603022B0CD093689C
:1031500003F00603062B07D0936803F00603042B45
:1031600014BF002002207047032070474B7800F501
:103170000062012B70B50E78D4691BD1B3409BB2AD
:103180002343D3610E784FF4106505EB46152B5899
:103190001A042AD42C588A6844F0805343F400431C
:1031A000C2F30A021A43CB7842EA834343EA8653C6
:1031B0002B501AE04FF4803505FA06F32343D36110
:1031C0000C784FF4306303EB441423581B040CD4E5
:1031D00022588B68C3F30A0542F0805343F400433E
:1031E000CA782B4343EA82432350002070BD30B598
:1031F0004C780A78D0F83C5800F50063012C16D1C1
:1032000004FA02F292B225EA0202DA630D78DA6970
:10321000AC40A4B222EA0404DC610A784FF41063E3
:1032200003EB42131A5822F400421A5014E001240E
:1032300004FA02F225EA0242DA630D78DA69AC4058
:1032400022EA0444DC610A784FF4306303EB421352
:103250001A5822F400421A50002030BD2DE9F341E3
:103260004B780C78012B4FF020054B6940F09B8088
:103270004FF4106615FB046404442769ABB927F0CA
:10328000FF5727F4C01727610C7815FB046404442A
:10329000276947F4002727610C7815FB046505446E
:1032A0002C69E40CE4042C613FE0FF0CFF0427616F
:1032B0000C78D1F808C015FB04640444276927F092
:1032C000FF5727F4C01727610F7815FB07670744DE
:1032D00003EB0C04013CB4FBFCF4DFF8B4C1D7F8F9
:1032E00010E0E40404EA0C0C4CEA0E043C610C7897
:1032F00015FB04640444C3F3120E27694EEA070762
:103300002761CC78012C40F0BA800C7815FB04645E
:103310000444276927F0C04727610C7815FB046532
:1033200005442C6944F000542C61012A06D10C7824
:103330000D6900EB4414C4F814590BE0CC78012C4F
:103340000BD03BB10F78D0F834580124BC402C434B
:10335000C0F83448CC78012C11D1D0F8084814F4C6
:10336000807F0C784FF020054FF4106615FB046445
:1033700025580CBF45F0005545F0805525500D7877
:103380004FF4106404EB4514055945F0044505510C
:10339000CC78012C77D10C7800929BB22246C96878
:1033A00000F022F96FE04FF4306615FB046404442A
:1033B0002769FF0CFF0427610C7815FB04640444A3
:1033C000276927F0FF5727F4C01727610C788F680B
:1033D00083B915FB04640444C7F3120723691F4330
:1033E00027610B7815FB036505442B6943F4002323
:1033F0002B611DE015FB046404443B44DFF890C0DE
:10340000D4F810E0013BB3FBF7F34FEAC34808EAF6
:103410000C0C4CEA0E0EC4F810E00C7815FB046599
:1034200005449BB22C695F43C7F3120727432F6102
:10343000012A01BF0B78CA6800EB4313C3F8142BB1
:10344000CB78012B11D1D0F8083813F4807F0B789A
:103450004FF020024FF4306412FB0343C2580CBFFC
:1034600042F0005242F08052C2500A784FF430636A
:1034700003EB4213C25842F00442C25003E0012A57
:103480007FF45FAF53E7002002B0BDE8F08100BFDA
:103490000000F81F4B78012BF0B50B784D694FF009
:1034A000200463D14FF4106614FB0363034405BB8F
:1034B0001D6925F0FF5525F4C0151D610B7814FB1F
:1034C00003630344012A1D6945F400251D610B783F
:1034D00014FB0364044423694FEAD3434FEAC34314
:1034E000236139D10B780A6900EB4313C3F814291F
:1034F00032E01F69FF0CFF041F610B7814FB0364AB
:103500000444236923F0FF5323F4C01323618B6821
:103510009D420D7888BF4B6120244FF4106314FB4B
:1035200005350544012A2E6946F400262E610D78E2
:1035300014FB053303444D691C69C5F3120644EAC4
:1035400006041C61CED03DB10D78D0F8342801239B
:10355000AB401343C0F834380A784FF4106303EBE0
:103560004213C25842F00442C2503BE04FF430676D
:1035700014FB037303441E69F60CF6041E610B78FA
:1035800014FB037303441E6926F0FF5626F4C0168D
:103590001E618E6805B14E610B784FF4306514FBE7
:1035A00003530344C6F312061F6947F400271F6143
:1035B0000B7814FB03540444012A236946EA0306EA
:1035C000266106D10B78202212FB03530344CA68FC
:1035D0005A610A784FF4306303EB4213C25842F049
:1035E0000442C2500020F0BD10B59DF808406CB9EF
:1035F000033300F5805023F0030300EB02320B4449
:10360000994203D051F8040B1060F9E7002010BD77
:10361000033222F003020A4400F58050914203D0A5
:10362000036841F8043BF9E7084670474B78012BE3
:1036300010B54FF020020C7814D14FF4106312FB38
:103640000433C258002AA2BFC25822F08042C2509E
:103650000A784FF4106303EB4213C25842F400128D
:10366000C25013E04FF4306312FB0433C258002AF7
:10367000A2BFC25822F08042C2500A784FF4306391
:1036800003EB4213C25842F40012C250002010BD96
:103690004B78012B0B7830B54FF020020CBF4FF464
:1036A00010654FF4306512FB03531C5824F40014CA
:1036B0001C50CB78023B012B06D80B7812FB03522F
:1036C000135843F080531350002030BDD0F8003819
:1036D00023F4FE63C0F80038D0F80038090101F483
:1036E000FE610B43C0F800380020704708B5D0F8E1
:1036F000043823F00203C0F804380320FDF746FB2A
:10370000002008BD08B5D0F8043843F00203C0F823
:1037100004380320FDF73AFB002008BD42698069A8
:103720001040704700F50063D0F81808DB691840B6
:10373000000C704700F50063D0F81808DB691840EA
:1037400080B2704700F5306303EB411100F5006073
:103750008A68406910407047D0F81028D0F8343893
:1037600000EB411000F5106023FA01F1C9018068F7
:10377000C9B2114308407047406900F0010070472A
:10378000D0F8003923F4FF6323F00703C0F80039B1
:1037900000F500639A6802F00602042A02BFD0F81E
:1037A000002942F00302C0F800295A6842F48072EE
:1037B0005A600020704710B50024C0F8104BD0F8B4
:1037C000104B44F40024C0F8104BD0F8104B44F0D8
:1037D0001804C0F8104BD0F8104B012900F53063E5
:1037E00044F0C04408BF4FF08023C0F8104B04BF22
:1037F000C0F8142BC0F8003B002010BD0A4B013B61
:1038000001D1032070470269002AF8DA0369064AE9
:1038100043F001030361013AF3D0036913F001039C
:10382000F9D11846704700BF410D0300D0F8183297
:103830001BB10020C3F81402704702207047D0F873
:103840001C3210B5D0F818425BB194F80002FF2882
:1038500007D09B6894F8012221469847FF2384F8FB
:103860000032002010BD0000432303800048704751
:1038700000000020432303800048704744000020DC
:103880004323038000487047880000200A230380F8
:1038900000487047CC00002038B50546D0F81842E3
:1038A00001F0C8FDD5F81832C4F80C024BB1D5F8B8
:1038B0001C32D4F80402DB6804F503719847002039
:1038C00038BD022038BD0000F8B50F7817F060034E
:1038D00006460C4622D0202B27D1CA884B78BAB195
:1038E0003906D0F8185209D5D0F81C1218468F683E
:1038F0002946B847E2882946304614E085F8003268
:10390000E38885F80132E288294600F0C3FB0CE029
:10391000D0F81C0284681846A04706E04B780A2BB2
:1039200003D10349012200F0A0FB0020F8BD00BF35
:103930002402002010B58121044601F013FD01216D
:10394000204601F00FFD8221204601F00BFDD4F846
:10395000183253B1D4F81C325B689847D4F8180277
:1039600001F026FE0023C4F81832002010BDF8B57F
:10397000037C044643B94FF400730222812101F015
:10398000E1FC4FF4007305E040230222812101F0A5
:10399000D9FC402302220121204601F0D3FC082358
:1039A00003228221204601F0CDFC4FF4077001F084
:1039B000F7FD0646C4F81802E8B1D4F81C321B68BB
:1039C0009847277C0025C6F81452C6F818524FB9FC
:1039D0004FF40073D6F804220121204601F01CFDAB
:1039E0003846F8BD4023D6F804220121204601F0D4
:1039F00013FD2846F8BD0120F8BD19B1C0F81C120E
:103A00000020704702207047D0F818320020C3F819
:103A10000812C3F810227047D0F818320020C3F8FB
:103A200004127047D0F8182210B572B1D2F81442BF
:103A3000012364B9C2F814328121B2F81032D2F8ED
:103A4000082201F0DBFC204610BD022010BD184604
:103A500010BDD0F8182210B562B1047C14B94FF42F
:103A6000007300E04023D2F80422012101F0D4FCCD
:103A7000002010BD022010BD08B580B1D0F814326E
:103A800013B10023C0F8143209B1C0F81012012399
:103A900080F8FC31027001F017FC002008BD022004
:103AA00008BD19B1C0F814120020704702207047F9
:103AB00008B501F039FC002008BD08B5D0F8143273
:103AC0000BB9022008BD1B6898470028F9D108BD32
:103AD00008B5D0F814325B689847002008BD38B5A7
:103AE000044600F50275284600F0F3F8012394F827
:103AF0000812C4F8F431B4F80E32C4F8F83101F009
:103B00001F03012B0CD006D3022B0ED129462046D1
:103B100000F02CFA0EE02946204600F0F9F809E002
:103B20002946204600F00AFA04E001F08001204610
:103B300001F026FC002038BD38B50446154609BB07
:103B4000D0F8F431032B26D1D0F80C11D0F8102185
:103B500091420AD98B1A9A4228BF1A46C0F80C31F2
:103B600092B2294600F0A5FA15E0D0F814321B698C
:103B700023B190F8FC21032A00D19847204600F099
:103B8000A0FA08E0D0F814329B6923B190F8FC2128
:103B9000032A00D19847002038BD70B5134604466B
:103BA0000E4600293CD1D0F8F421022A30D1C56953
:103BB000026A954207D9AA1AC261194692B200F068
:103BC00061FA334611E08369B3FBF2F502FB153568
:103BD0008DB99A420FD8D0F8F82193420BD22A46D9
:103BE00000F050FAC4F8F8512B461A461946204600
:103BF00001F012FC0CE0D4F81432DB682BB194F81D
:103C0000FC21032A01D120469847204600F064FA9F
:103C100094F80032012B0CD1002384F8003208E024
:103C2000D0F814325B6923B190F8FC21032A00D14B
:103C30009847002070BD38B5002204461146402543
:103C4000402301F07FFB2B46C4F810510022802155
:103C5000204601F077FB012384F8FC31D4F81832B8
:103C600025622BB1D4F8143221795B68204698473D
:103C7000002038BD01740020704790F8FC3180F8B6
:103C8000FD31042380F8FC310020704790F8FD31AD
:103C900080F8FC310020704708B590F8FC21032A19
:103CA00004D1D0F81432DB6903B19847002008BD75
:103CB00000207047002070470020704708B501229F
:103CC00080F8FC21D0F81422017952689047002036
:103CD00008BD0B7803704B784370CA788B7803EB80
:103CE000022343804A790B7903EB02238380CA794C
:103CF0008B7903EB0223C380704710B58021044603
:103D000001F03EFB20460021BDE8104001F038BB29
:103D100073B54B7804460D46092B00F20581DFE8A8
:103D200013F0D700EE000301EA00030181000A004E
:103D30000301C7009D004B881A0A013A0E2A00F2BF
:103D4000F380DFE812F013001B002700F100F10000
:103D500048005300F100F100F100F100F100F10022
:103D6000F1000F00D0F81032DB6902E0D0F8103219
:103D70001B68207C0DF10601984743E0027CD0F8D7
:103D800014320AB99B6A00E0DB6A0DF1060098471D
:103D9000022336E0DBB2052B00F2C680DFE803F039
:103DA00003070B0F1317D0F810325B68E1E7D0F868
:103DB00010329B68DDE7D0F81032DB68D9E7D0F825
:103DC00010321B69D5E7D0F810325B69D1E7D0F823
:103DD00010329B69CDE7037C002B40F0A580D0F822
:103DE00014320DF106005B6B98470BE0037C002B4F
:103DF00040F09A80D0F814320DF106001B6B984702
:103E000007234370BDF80620002A00F09180EB885C
:103E1000002B00F08D809A4228BF1A46ADF806208C
:103E2000014664E08B88002B7ED1CB88002B7BD1B0
:103E300090F8FC318E78032B06F07F0674D080F862
:103E4000FE61314601F0CCFA204600F03AF90EB19D
:103E5000022300E0012384F8FC3169E08978364EC2
:103E60000129317060D890F8FC31022B02D0032B6D
:103E700008D059E0002953D001210323416080F884
:103E8000FC310FE031B9022380F8FC314160FFF7CB
:103E90001FFE45E04168012942D0C9B2FFF718FE74
:103EA000317861602046FFF708FE022838D13BE0F8
:103EB000CA88012A38D190F8FC31022B03D0032B99
:103EC00032D1011D13E00146002341F8083F0EE006
:103ED00090F8FC31023B012B26D80123C360D0F8B7
:103EE00004320BB10323C360022204F10C0120460B
:103EF00000F0BBF81CE04B88012B19D108E090F8CA
:103F0000FC31023B012B0FD84B88012B10D1002331
:103F1000C4F80432D4F8143229469B6820469847E6
:103F2000204600F0CEF803E029462046FFF7E5FEE4
:103F3000002002B070BD00BF2502002038B590F807
:103F4000FC31032B04460D460CD10B79012B09D80B
:103F5000D0F814329B689847EB882BB9204600F0C4
:103F6000B0F801E0FFF7C9FE002038BD70B50A784F
:103F70008E8802F06002202A04460D46F3B204D176
:103F8000D0F814329B68984751E04A78012A10D043
:103F900026D3032A4BD190F8FC21022A27D0032AEA
:103FA00043D14A8892B95E0610D0194601F0E8F96B
:103FB0000CE090F8FC21022A19D0032A35D14A8856
:103FC000AABB590608D0194601F0E8F9D4F8143212
:103FD00029469B6820469847204600F072F826E064
:103FE00090F8FC21022A02D0032A06D01DE05A06CE
:103FF0001DD0194601F0C4F919E003F07F0516F051
:10400000800F00EB0515194614BF143505F58275B0
:1040100001F0D2F910B101232B6000E028600222E8
:104020002946204600F021F801E0FFF766FE002057
:1040300070BD30B5C0B105462B1A15F8014BDBB287
:10404000002CF9D15B00023313800B7003234B70FB
:104050000138022310F8015F35B15A1CD2B2CD5499
:104060000233DBB28C54F5E730BD10B513460222A3
:10407000C0F8F42183610A46C361002101F0BEF952
:10408000002010BD08B513460A46002101F0B6F91C
:10409000002008BD10B513460322C0F8F421C0F873
:1040A00008310A46C0F80C31002101F0B5F90020B2
:1040B00010BD08B513460A46002101F0ADF90020F5
:1040C00008BD08B50423C0F8F43100231A46194688
:1040D00001F094F9002008BD08B50523C0F8F431BB
:1040E00000231A46194601F097F9002008BD000088
:1040F000F0B5ADB0334B002101911A6C42F0805203
:104100001A641B6C03F080530193019B2E4B0291A8
:104110001A6842F440421A601B6803F44043029359
:10412000029B4FF4803309934FF48003022401264D
:104130000F9319274FF4B473042508A808960E941A
:1041400010971193129413941495FEF7E7F800B1A9
:10415000FEE7FDF7FBFC00B1FEE70F2303934FF4EE
:10416000A0530590069305214FF4805303A80494AF
:104170000793FDF737FD00B1FEE74FF48073159309
:10418000C0231C9315A84FF000631E941B971D9528
:1041900020962A93FDF7E0FD044600B1FEE7FDF707
:1041A000D5FD4FF47A73B0FBF3F0FCF793FF28468C
:1041B000FCF7A6FF224621464FF0FF30FCF74AFFEE
:1041C0002DB0F0BD00380240007000400E4A0F498B
:1041D0001368096892ED010A5B1A07EE903A0C4BDE
:1041E000F8EE677A93ED007A27EE877AF6EE006AAA
:1041F00027EE277A67EE807A92ED020AE7EE267ABA
:1042000037EE800A704700BF28020020800200209D
:104210006C0200200000000007B510EE100A8DEDC2
:10422000010AFCF78BF912A3D3E90023FCF704FB86
:10423000FCF7EAFB0A4B9DED010A1860094B83ED80
:10424000000AFFF7C3FF084B084A19681160DA68D3
:1042500083ED020A5A6003B05DF804FBAFF30080FF
:10426000080400206C0200202802002080020020A8
:1042700028207AA737DE153F08B5154B10EE100A37
:1042800083ED000AFCF75AF90DA3D3E90023FCF7EC
:10429000A9F90DA3D3E90023FCF7A4F9FCF7B4FBBB
:1042A0000C4B1860FFF792FF0B4B0C4A196811601A
:1042B000DA6883ED020A5A6008BD00BFAFF30080E0
:1042C00079838BBC7C50A03F6D1CAFCC5472653F92
:1042D000080400206C020020280200208002002038
:1042E00008B52DED028BB0EE408A9FED060AFFF770
:1042F00093FF054B83ED018A83ED038ABDEC028BAE
:1043000008BD00BF0000000028020020054B064A3F
:104310001B78106C002B14BF01234FF0FF33584360
:10432000704700BF0C040020000C0040C2B21021F6
:104330000148FCF7D1BF00BF00080240C2B2012112
:104340000148FCF7C9BF00BF0004024010B5C4B269
:10435000224620210248FCF7BFFF024B1C7010BD13
:10436000000802400C04002038B542F21073984255
:10437000044609DC124B984202DB002807DA00E011
:104380001C466442002003E001201C4600E001209E
:104390000C4B1B78984201D0FFF7D8FF0A4B0B4A11
:1043A00019691268601A904201DD8C1803E05542C9
:1043B000A842B8BF8C1A064A14641C6138BD00BFFD
:1043C000F0D8FFFF0C04002028020020100100207C
:1043D000000C004008B5DFED235A234B9FED236A04
:1043E000C3ED005A224B4FF07E521A60214B83EDF1
:1043F000006AFFF7EBFE4FF08043D3ED097A1E4BC6
:104400009FED1E7AF8EEE77A30EE670AD3ED057A73
:10441000F4EEC77AF1EE10FA04D8B5EEC00AF1EE68
:1044200010FA0BDC9FED167AF4EEC77AF1EE10FA73
:1044300008DBB5EEC00AF1EE10FA03D570EE277A6C
:10444000C3ED057AD3ED057A93ED037AE0EE257A94
:10445000BDE80840E7EE467AFDEEE77A17EE900AEF
:10446000FFF782BF0080BB4404030020000000006F
:1044700070020020180400202802002000401C4682
:1044800000401CC6C2B208210148FCF725BF00BF8E
:1044900000080240104B10B50446187010F0FD00E3
:1044A00001D1FFF7EFFF012C0FD12046FFF7EAFF04
:1044B0009FED0A0AFFF7B0FE0020FFF755FF9FEDC2
:1044C000070ABDE81040FFF70BBF032C02BF044BE7
:1044D00001221A7010BD00BF000300200000000080
:1044E000C00200202DE9F041B24CB34A2368D4ED5C
:1044F000037AD2ED006AB14D01332360A36977EEF0
:10450000A66A01330A2BA361C4ED036A56D10023C6
:10451000A361DFEDAB4AAB4B9FEDAB5AC3ED004A55
:10452000AA4B9FEDAB7A83ED005AAA4BB1EE084A35
:1045300083ED004AA84B83ED007AA84BF3EE045AB2
:10454000C3ED005A2B7873BB4FF08043A449D3EDE1
:10455000097AD3F8242491ED006A216A03F5806377
:10456000F8EEE77A12B2521A5B6A27EE877A07EE04
:10457000902AB4F9242084ED077A1BB29B1A00EE2E
:10458000103AF8EEE77AB8EEC00A77EE877A20EEB6
:10459000040AB8EEC66AA7EEA40AA6EE050AA6EEBD
:1045A000A50AFFF769FEE38CA384238DE384638D62
:1045B0002385A38D63858B4B5B6AA3852B7813F0D2
:1045C000FD0F19D1874B216A5B6A854A94ED077A02
:1045D0001BB25B1A07EE903AF8EEE77A77EE877A2D
:1045E00092ED007AB8EEC77A77EE877AFDEEE77A39
:1045F000C2ED007AFFF7EEFE95F80080B8F1030FE8
:1046000040F0BA80774BA78C5B6A774EDF1BFFF7D1
:10461000DDFDDFED767AB4EEE70AF1EE10FABFB217
:1046200024DD644BD3ED037AF5EEC07AF1EE10FA97
:104630001CDB9FED6F7A86F80080F0EEE77AF4EEEF
:10464000C77AF1EE10FA04DD9FED6A0AFFF714FE57
:1046500003E09FED690AFFF743FED4ED037AF5EE20
:10466000407AF1EE10FA04BF01233370FFF7AEFD7C
:10467000DFED627AB4EEE70AF1EE10FA23D5D4ED5D
:10468000037AF5EEC07AF1EE10FA1CD89FED587A55
:10469000F0EEE77AF4EEC77A0323F1EE10FA337006
:1046A00004DD9FED570AFFF7E7FD03E09FED520A97
:1046B000FFF716FED4ED037AF5EE407AF1EE10FA2C
:1046C00004BF012333703378DFF81C81012B21D123
:1046D000B3EE0E0AFFF7D0FD3BB2002B414B0CDDD1
:1046E0005B6A1AB282EAE273A3EBE273B3F5167F58
:1046F00010DD002388F800300EE05FB15B6A1AB26B
:1047000082EAE273A3EBE273B3F5167FBCBF00232A
:1047100088F800303378EBB9BBEE0E0AFFF7ACFD3A
:1047200017F4004F2F4B09D05B6A1AB282EAE2738A
:10473000A3EBE273B3F5167F0CDD09E057B15B6ABA
:104740001AB282EAE273A3EBE273B3F5167F01DAE1
:1047500001233370FFF73EFE224B5B6A1AB282EAF6
:10476000E273A3EBE27340F2A6429342C1BF00237F
:104770002B704FF4966323624FF080435A6A82EAAB
:10478000E273A3EBE273B3F5C87F02DD0120FFF70C
:1047900081FE2B78012B0BD19FED170AFFF76CFDE3
:1047A0000020FFF7E1FD0020BDE8F041FFF76ABE01
:1047B000BDE8F081280200206C02002000030020E8
:1047C000CDCC8C3F14040020BC74933B7C020020B1
:1047D0008988083D1004002074020020780200201F
:1047E0008C03002000040040C0020020000016439B
:1047F000CDCC4C3D000096C200000000000016C366
:104800000000964237B5F3EE0F7A20EE270A154DD9
:10481000FCEEC07A2846CDED017A9DF804402021B7
:1048200004F00102FCF758FDC4F3400228461021B1
:1048300005F50065FCF750FDC4F380022846012110
:10484000FCF74AFDC4F3C00228460421FCF744FDEE
:10485000C4F300120221284603B0BDE83040FCF743
:104860003BBD00BF0000024048B9B1FA81F200F13F
:10487000804052094FF4804100F5023010E00128D9
:1048800006D1B1FA81F252094FF40051064807E00F
:10489000032807D1B1FA81F2044852094FF480711C
:1048A000FCF71ABD704700BF000802400004024038
:1048B0000FB42DE9F0478CB000AF07F15003ADF510
:1048C000007D53F8042B7B604FF40071684601F0C3
:1048D000DBFBB0F5007F6E4604462ED3274B07F175
:1048E000140203F1180E904618685968154603C55E
:1048F000083373452A46F7D11B882B804FF00009F7
:104900000A2548F69F4A4046FCF7CEF881B2404659
:1049100000F03AFCB870BB78012B0ED1C7F80890B4
:104920004FF08042BB68534505DC536AFB60BB68AF
:104930000133BB60F6E7013DE5D10A25A4B248F694
:104940009F482146304600F01FFCF870FB78012B91
:104950000ED100233B614FF080423B69434505DCAB
:10496000536A7B613B6901333B61F6E7013DE8D166
:104970003037BD46BDE8F04704B070476C7600089C
:104980002DE98048BDB00024FCF7D8F9FFF7B0FB53
:10499000984B28941A6B9848984D42F004021A6379
:1049A0001A6B02F004022892289A29941A6B42F09A
:1049B00080021A631A6B02F080022992299A2A94C3
:1049C0001A6B42F001021A631A6B02F001022A927A
:1049D0002A9A2B941A6B42F002021A631A6B02F0A5
:1049E00002022B922B9A2C941A6B42F008021A6343
:1049F0001B6B03F008032C93224646F23F012C9BCD
:104A0000FCF76AFC224630217D48FCF765FC224613
:104A100040F201117B48FCF75FFC012646F23F03A0
:104A200033A9754833930327349635943694FCF7AD
:104A300079FB49F6C07333A96F48339334973594A3
:104A4000FCF770FB302333A96D48339334963594CB
:104A50003694FCF767FB40F2011333A9694833939E
:104A60003496359436944FF00208FCF75BFB33A97B
:104A70006448CDF8CC8034943594FCF753FB4FF266
:104A8000FC4333A95F48339334973594FCF74AFBD2
:104A90004FF4674333A95A48339334973594FCF75E
:104AA00041FB04235848339333A934973594FCF7DA
:104AB00039FB00F027FB554BAC604FF4803E85E896
:104AC00008402846524B2C61AC612C62EC62AB6210
:104AD000EC60EE612C636E61FCF766F900B1FEE7F5
:104AE000359033A92846CDF8CC803496FCF706FAE9
:104AF00000B1FEE7474C34904FF08043052523601A
:104B00006060A0604FF0FF332061369038903A909B
:104B100033A92046E36033963596379539963B9511
:104B2000FEF7BCF800B1FEE72F9030902FA9204689
:104B3000FEF7BAF900B1FEE7374C384B23606060EE
:104B4000A0604FF6FF7320613490369038903A9011
:104B500033A92046E36033973596379539963B95D0
:104B6000FEF79CF800B1FEE72F9030902FA9204669
:104B7000FEF79AF900B1FEE7294C2A4BA06044F2F7
:104B8000506584E82800206142F210732046E360FB
:104B9000FEF750F800B1FEE72046FEF765F8024642
:104BA00000B1FEE760233393359041F288333790AC
:104BB00033A920463493FEF7EDF8054600B1FEE731
:104BC000204600F02DFA184818498560082380E82F
:104BD0000A0042F20F73C3600561FEF72BF800B1C3
:104BE000FEE74FF480532FA90F482F93FDF75DFE8A
:104BF000F0B1FEE700380240000802400803002040
:104C00000000024000040240000C0240002001406D
:104C10000100000FCC030020C4020020000400406B
:104C2000500300200048014084020020000C004096
:104C30007D48FEF719F800B1FEE72D902E902DA9C2
:104C40007948FEF731F900B1FEE7602333933590E0
:104C5000642337900C2233A973483493FEF79AF8F3
:104C6000054600B1FEE77048704C00F0D9F9704A73
:104C7000A560592384E80C00204640F2E733E36046
:104C8000FDF7D8FF00B1FEE73390349033A92046FA
:104C9000FEF70AF9054600B1FEE701466548DFF870
:104CA000CC91DFF8CCB1FEF7E5F829462846FFF7AE
:104CB000DBFD01224FF400515F48FCF70DFB0121A1
:104CC0000320FFF7D1FD2A464FF480715B48FCF7C3
:104CD00003FB2846FFF7D6FB0120FFF737FBB7EEB3
:104CE000000AFFF78FFD0120FFF728FB0120FFF7E7
:104CF0001DFB0120FFF7CEFB0C214B48FEF7BAF855
:104D000018214F48FDF7AEFD18214E48FDF7AAFDCA
:104D10002046FDF79BFD4C48FFF7CAFD0A20FCF733
:104D200035F84A48FFF7C4FD9620FCF72FF8484BAA
:104D300003221A70474B01221A70DBF80000D9F8E1
:104D40002460454CFBF7FAFB444BCDE91A01186887
:104D5000FBF7F4FBCDE91C01E068FBF7EFFBCDE9C5
:104D60001E016068FBF7EAFB3D4B2768D3F8008023
:104D7000CDE92001A068FBF7E1FB4FF08043CDE9CE
:104D800022015B6A2793FFF721FA8DED260AFFF7D0
:104D9000BDFA216AD9F8245019912D492590097836
:104DA000B1FA81F149091891E069FBF7C7FBCDE938
:104DB0001601B4F924102DB26D1A2A491595096807
:104DC00014916069FBF7BAFB9DED260A259A1092B3
:104DD000CDE9120110EE100AFBF7B0FB9DED227B2E
:104DE0008DED0A7B9DED207B8DED047B9DED1E7B83
:104DF0008DED027B9DED1C7B279B0C9336B2CDE99C
:104E00000E01C8EB070ACDF81C8006978DED007BDC
:104E1000DDE91A2331461448CDF820A0FFF748FDFC
:104E20000A20FBF7B3FF88E78402002090030020EC
:104E3000001000405003002000080240000402401F
:104E4000C4020020CC03002086760008917600087A
:104E500000030020C0020020280200206C02002075
:104E6000800200208C0300209D7600080004004092
:104E700008040020FEE708B50320FCF7D9F800225B
:104E800011466FF00B00FCF7E5F8002211466FF0B9
:104E90000A00FCF7DFF8002211466FF00900FCF76A
:104EA000D9F8002211466FF00400FCF7D3F8002275
:104EB00011466FF00300FCF7CDF8002211466FF0A9
:104EC0000100FCF7C7F8002211464FF0FF30BDE8A3
:104ED0000840FCF7BFB800007FB502680D4B9A424E
:104EE00015D1002103F58C3300915A6C0A4842F425
:104EF00080725A645B6C039103F480730093009B8F
:104F00000423019301A903230293FCF70BF907B0D3
:104F10005DF804FB002001400000024000B503687A
:104F2000B3F1804F89B013D103F50E330021019105
:104F30001A6C42F001021A641B6C03F00103019326
:104F4000019B03230393022304930123059314E09D
:104F50000E4A934217D10E4B002102911A6C42F077
:104F600002021A641B6C03F002030293029BC0232B
:104F700003930122022304930592069105480793A7
:104F800003A9FCF7CFF809B05DF804FB000400406A
:104F900000380240000002401FB503681C4A9342DB
:104FA0000CD1002301931B4B1A6C42F008021A64C7
:104FB0001B6C03F008030193019B25E0164A934202
:104FC00013D10022134B0292196C41F010011964A5
:104FD0001B6C03F01003029301213620029BFCF7A7
:104FE00039F83620FCF76AF80EE00C4A93420BD1F0
:104FF00000230393074B5A6C42F480225A645B6C83
:1050000003F480230393039B05B05DF804FB00BF0A
:10501000000C0040003802400010004000480140F1
:105020007FB50368104A93420AD1082300220193F6
:105030000223029303920492059301A90B480EE008
:105040000B4A93420DD14FF4007301930223029354
:1050500000230393049307480323059301A9FCF756
:1050600061F807B05DF804FB000C0040000002404E
:1050700000480140000402407047FEE7FEE7FEE7FB
:10508000FEE770477047704708B5FBF771FEBDE853
:105090000840FCF742B8000008B50348FDF7C4FC1F
:1050A000BDE80840FFF71EBA900300200148FCF756
:1050B0009EB900BF480600200F49D1F8883043F45C
:1050C0007003C1F888300D4B1A68002042F00102CD
:1050D0001A6098601A6822F0847222F480321A6092
:1050E000074A5A601A6822F480221A60D8604FF08A
:1050F00000638B60704700BF00ED00E000380240A5
:105100001030002410B5094C094900222046FEF752
:10511000B3FC08492046FEF7C4FC20460649FEF7CA
:105120006CFC2046BDE81040FEF7C2BC1C04002009
:105130004C010020D80000201801002000207047FA
:105140000020704710B5054C01462046FEF764FC70
:105150002046FEF77EFC002010BD00BF1C0400208E
:1051600010B5064C064900222046FEF74DFC0549C5
:105170002046FEF751FC002010BD00BF1C0400209B
:10518000440600204006002010B5094CD4F818321F
:10519000D3F814320A4643B901462046FEF734FCE0
:1051A0002046BDE81040FEF73DBC012010BD00BF09
:1051B0001C04002010B50368B3F1A04F86B025D1C0
:1051C0004FF4C0530193022302930323002404935A
:1051D00001A90A230E4805930394FBF7A3FF0D4B87
:1051E0005A6B42F080025A6300945A6C42F4804237
:1051F0005A645B6C03F480430093432022462146AB
:10520000009BFBF727FF4320FBF758FF06B010BDBC
:10521000000002400038024000F56F71D0F8F8033A
:10522000FEF75DBC1C2303FB0103D0F8F803D3F8A1
:105230000422FEF781BC1C2303FB0103D0F8F80312
:105240005A6CFEF7AABCD0F8F803FEF725BD10B5DE
:10525000C1680446003118BF0121D0F8F803FEF7F9
:1052600009FDD4F8F803BDE81040FEF7E4BC0000E7
:1052700010B50446D0F8F803FEF7FFFC2268D2F818
:10528000003E43F00103C2F8003E236A23B1034A03
:10529000136943F00603136110BD00BF00ED00E089
:1052A000D0F8F803FEF7F2BCD0F8F803FEF702BD21
:1052B000D0F8F803FEF7FCBCD0F8F803FEF7FCBC0E
:1052C000D0F8F803FEF7FABC08B502783ABB154BE4
:1052D0000621C3F8F803C0F820324FF0A04083E85D
:1052E000030002211846D9601A615A619961DA6196
:1052F0001A625A62DA621A63FBF7F2FF08B1FFF72B
:10530000B9FD80210748FCF70AFC4022002105482E
:10531000FCF7E4FB802201210248FCF7DFFB0020C0
:1053200008BD00BF4806002008B5D0F82002FCF7F1
:1053300049F803289ABF024B185C022008BD00BF41
:105340006876000810B51C46D0F8200213462246A5
:10535000FCF7B8FA03289ABF014B185C022010BD75
:105360006876000808B5D0F82002FCF7DAFA0328BE
:105370009ABF024B185C022008BD00BF6876000887
:1053800008B5D0F82002FCF756FB03289ABF024B61
:10539000185C022008BD00BF6876000808B5D0F888
:1053A0002002FCF775FB03289ABF024B185C022011
:1053B00008BD00BF6876000811F0800FD0F82022E9
:1053C00018BF01F07F034FF01C0015BF00FB032145
:1053D00000FB012191F83A0091F8FA0170470000B2
:1053E00008B5D0F82002FCF75BFA03289ABF024BFD
:1053F000185C022008BD00BF6876000808B5D0F828
:105400002002FCF7EBFA03289ABF024B185C02203B
:1054100008BD00BF6876000808B5D0F82002FCF788
:10542000A4FA03289ABF024B185C022008BD00BFF3
:105430006876000808B5D0F82002FCF7C7FA08BD66
:1054400010B5044611B1012916D010BD036A33B15D
:10545000FEF74EFE124A136923F006031361226819
:10546000D4F8F803D2F8003E23F00103C2F8003E5E
:10547000BDE81040FEF70ABC0268D0F8F803D2F885
:10548000003E43F00103C2F8003EFEF7F6FB236A3C
:1054900023B1034A136943F00603136110BD00BF33
:1054A00000ED00E012230B80004870472801002027
:1054B00004230B80004870473C0100200C230B8024
:1054C000004870474001002010B5044C04480A46CB
:1054D0002146FEF7AEFD204610BD00BF440A002065
:1054E0009B77000810B5044C04480A462146FEF795
:1054F000A0FD204610BD00BF440A0020AE77000882
:1055000010B5044C04480A462146FEF792FD204699
:1055100010BD00BF440A0020C477000810B5044C39
:1055200004480A462146FEF784FD204610BD00BF10
:10553000440A0020D177000810B5044C04480A46FC
:105540002146FEF776FD204610BD00BF440A00202C
:10555000DC77000870B50E4B0E4CE41AA410002541
:105560001E46A54204D056F8253098470135F8E785
:1055700002F066F8084C094BE41AA41000251E46F8
:10558000A54204D056F8253098470135F8E770BD9C
:1055900048790008487900084C79000848790008E3
:1055A000024B0146186800F059B800BFCC0100203A
:1055B000024B0146186800F00BB800BFCC01002078
:1055C00002440346934202D003F8011BFAE77047F6
:1055D00030B500293ED051F8042C0B1F1E49002A7B
:1055E000B8BF9B180A680C4612B95A600B6030BDF0
:1055F0009A420ED919685818824204BF106852683E
:105600005A6004BF09181960236030BD994203D85D
:105610000A4651680029F9D1146815199D420AD12A
:105620001B682344D0188142136013D108680344D7
:1056300013604B680DE002D90C23036030BD18687D
:105640001C18A14204BF0C684968596004BF0019C6
:105650001860536030BD00BF6002002070B5CD1CE3
:1056600025F0030508350C2D38BF0C25002D064606
:1056700003DA0C233360002070BDA942F9D81F4B18
:105680001C681A462146A1B10B685B1B0ED40B2B7C
:1056900003D90B60CC18CD501EE08C420DBF63685F
:1056A0004B686360136018BF0C4615E00C464968F0
:1056B000E9E7134C23681BB9304600F0A9FC2060D1
:1056C0002946304600F0A4FC431CD2D0C41C24F070
:1056D0000304A0420AD1256004F10B00231D20F031
:1056E0000700C31A09D05A42E25070BD211A304651
:1056F00000F08EFC0130EED1BBE770BD60020020EF
:105700005C0200202DE9FF4755EC104B0D9FDDF8A2
:1057100030A0002D0E4691461946B8BF22462B46B2
:1057200027F02007BBBF05F100431D4600232D23B2
:10573000B8BF1446462F0B7003D0452F03D1013656
:1057400001E0032100E0022103AB019302AB0093CF
:105750003246534645EC104B00F036FD472F80464D
:1057600002D119F0010F28D0462F08EB060911D1FC
:1057700098F80030302B0AD1002200232046294619
:10578000FBF744FA18B9C6F10106CAF80060DAF866
:10579000003099440022002320462946FBF736FAC0
:1057A00008B9302202E0CDF80C9006E0039B994541
:1057B00003D9591C03911A70F8E7039B0E9AC8EBA2
:1057C00003034046136004B0BDE8F08773B5034699
:1057D0000029B8BF494203F8022BB4BF2D222B2267
:1057E0000929427019DD0DF1070216460A2591FBC1
:1057F000F5F405FB14113031092C02F8011D214686
:10580000F5DC3031541E02F8011CB4421A460AD2AB
:1058100014F8012B03F8012BF7E730241A46214432
:1058200002F8024B5970101A02B070BD2DE9F04F0A
:105830008BB00C4616461F46DDF85080054601F039
:1058400063FAD0F800B05846FBF72EF9002308930E
:10585000D8F800300490073323F0070303F108025F
:1058600094F81890C8F80020D3E90023C4E9122363
:1058700094ED120B00F0A0FB012819D100220023A7
:10588000D4E91201FBF7CCF910B12D2384F8433091
:10589000974B984AB9F1470F8CBF9046984603231F
:1058A0002361236823F0040323604FF0000A8EE095
:1058B00094ED120B00F080FB226860B98E4B8F498B
:1058C00022F00402B9F1470F8CBF884698460323A3
:1058D00023612260E9E761684B1C94ED120B08A874
:1058E00001D1062309E0B9F1670F02D0B9F1470FE2
:1058F00004D1002940F0AF8101236360002342F40A
:105900008062039307AB0290009322600DF11B03AA
:10591000CDF8049061682846FFF7F4FE09F0DF0334
:10592000472B804609D1079BD81C02DB6268934253
:1059300030DDA9F102095FFA89F9B9F1650F07991C
:1059400012D801394A4604F150000791FFF73EFF93
:10595000089A8318012A8246236102DC2268D10753
:105960002FD5013323612CE0B9F1660F14D1002942
:10597000636807DD216113B92268D2071DD50133A1
:105980000B4419E013B92268D00701D5023313E0A4
:10599000012311E04FF06709079B089A934205DB4A
:1059A00022682361D10708D5013305E0002BD4BF5D
:1059B000C3F10203012313442361079BA3654FF046
:1059C000000A9DF81B3013B12D2384F84330009753
:1059D000334609AA2146284600F052F9013002D187
:1059E0004FF0FF3048E123685A0501D4236965E090
:1059F000B9F1650F40F2D48000220023D4E91201EE
:105A0000FBF704F978B301233D4A31462846B847ED
:105A10000130E5D0089B079A9A420BDB2368D80730
:105A200008D423689B0740F110814FF0000804F16F
:105A3000190905E1049B5A4631462846B84701300A
:105A4000CED04FF0000804F11A09089B013B98459D
:105A5000E7DA01234A4631462846B8470130BFD02D
:105A600008F10108F1E7079B002B29DC0123244AF8
:105A700031462846B8470130B2D0079B23B9089B6E
:105A800013B92368D907CCD5049B5A46314628461A
:105A9000B8470130A4D04FF0000904F11A0A079B5F
:105AA0005B42994509DA0123524631462846B847F8
:105AB000013095D009F10109F1E7089B4246A6E0C3
:105AC000089AA36D9A42A8BF1A46002A914607DC9D
:105AD00004F11A034FF0000A29EAE97905931BE063
